:020000040800F2
:4000000070AF00203B0D0108390C01083B0C01083D0C01083F0C0108410C010800000000000000000000000000000000450C0108430C010800000000470C0108BD040108BE
:40004000490C01084B0C01084D0C01084F0C0108510C0108530C0108AF920008B3920008B7920008BB920008BF920008D1950008917F0008550C0108577F0008570C01085F
:40008000590C01088D7F0008D39500085B0C01085D0C01085F0C0108610C0108C3920008630C010811960008650C0108670C0108136C0008416C0008136300088BA000081B
:4000C00037A30008690C01086B0C01086D0C01086F0C01086F8000087F81000885810008F9920008710C0108730C0108750C0108770C0108790C01087B0C01087D0C0108A6
:400100007F0C0108810C0108830C0108850C0108870C0108890C01088B0C01088D0C01088F0C0108910C01083B720008930C0108DFF800F0890A002080B5DFF8200C00216D
:400140008163DFF8A80C017001F080FEBDE8014049E1DFF89C1C01F13C02096A484302EB80007047DFF8F81BDFF8842C4969526A02FB0010704738B50446FFF7EAFF05463B
:40018000601CFFF7E6FF0146284601F025FFDFF8C05C05EBC400002180F824102046FFF7E1FF05EB8401C1F8C00031BDDFF8401C0A6BCB6A9A4224BF092002F039B9121DBA
:4001C0000A6342F8040D704780B5DFF8240C816A026B914204D30A2002F02AF9002002BD016B091F0163086802BDDFF8700B407E18B9DFF8180C00210170DFF8600B407E9F
:4002000038B972B6DFF84C0C016841F04001016062B67047DFF8401C096809B90020704701EB4000808908187047DFF82C0C006810B140881438C0B27047DFF81C0C006846
:4002400010B1018808180C30704738B50446DFF8000CDFF8085C8179491C81712878A04218BF01F0F4FF00F0AAF8204602F03FF91928B8BF00242C70BDE83140B3E010B536
:400280000C46FFF7E2FFDFF8680B047610BDF8B50446142C05D3E1B2172002F0CFF80020F2BDDFF8AC5B6619307BA8B32878DFF8407B03280ED102F00DFA02F0F3FA08B1F3
:4002C00001F093FE01F0BCFEDFF8DC0C00214160072003E0B86B401990F8100186F810012046FFF797FF05EBC4010862787E18B12046FFF740FF06E000F032F82046FFF7DB
:400300003AFF00F00AF8204601F037FE02F02EF80CB902F0C8FC0120F2BD10B5DFF83C4AA06BFFF716FF216AA06200EB8101E162A26BDFF81C1B01EBC20292F8242000EBAA
:4003400082002063A06B01EB8000D0F8C000E06110BDDFF89C0A016B806A081A8008704770B5DFF8F849DFF8E86AA56BFFF7F1FF06EBC50181F82400A06BE16906EB8000C1
:40038000C0F8C01070BD38B50446DFF8C45A6019007B012807D9801F08BF01F0D5FF0121204601F0DEFD05EBC4000021016231BD80B5FFF7E8FFBDE8014001F0D7BF10B576
:4003C00000242046FFF7DFFF641C142CF9D301F0CDFF02F073F9FFF710FF02F06BFDBDE8104001F033BD2DE9F84302F0BAF8DFF8684ADFF86C59206805F5DC464436002863
:4004000044D005F16C01A9604FF47A6940894FF6FF78404508BF4846C01C20F00307394605F16C0002F0BEFD781900F16C07EF6020680089404508BF4846C01C20F003090C
:400440004946384602F022FF2168CA8809EB070042451ABF47F6FF739A4243F698222861D21C9208898800EB8200331AB3FBF1F3DFF8E8289B089B0053624FF49663B3FB76
:40048000F1F1FF2988BFFF21116211E005F16C00A8604FF47A6102F085FD05F580500C30E86005F5F850AC30286105F5B44044306861AE611420FFF7ADFE81461325DFF891
:4004C0009069206818B9A8190021017308E02846FFF7A0FE48458941AA19C90F1173814606EBC500002101626D1EEAD503203070DFF8C00B01600121DFF8BC0B0170002191
:40050000DFF8B80B0170BDE8F143DFF84C09006888B1418800EB410131F80E2F4988490400EB11400C3010F0030FFCD1DFF83018086010184860704701784B2001F07EBF19
:400540007047112001F074BF10B5044601F0C2F9E178814200D20DE010BD10B5044601F07DF96179227900B242EA0121814200D200E010BDBDE81040072001F059BF10B5F5
:40058000044601F06BF96179227942EA0121814206DBE179A27942EA012109B2884200DAE8E710BD10B500F0F6FF024661886078BDE8104003F066B890F9042000E00279B6
:4005C0004188407803F05EB8B0F90420F8E710B5044601F085F9DFF88827B4F801101269885210BDDFF87827B0F801101269B0F803008852704710B5044601F071F9DFF8BB
:400600006027B4F801101269885010BDDFF85027B0F801101269B0F903008850704710B500F07CF9DFF8C8276178D269885210BDDFF8BC274178D26940888852704710B522
:4006400000F06CF9DFF8A8276178D269885010BDDFF89C274178D269B0F902008850704770B505460E46FFF7E0FD854239D205F11400FFF7CFFD044605F11500FFF7CAFDB7
:40068000844233D0DFF86857A86BFFF76BFDE969081AFFF78BFDE869DFF8BC1709683018E861DFF848677068401AFFF77FFDA86BDFF89C1701EBC00090F82420521C80F856
:4006C00024200878401F08D0401E01289FBFDFF8E4090168491C016001E0FFF786FD746070BDBDE870400F2001F0A2BE70BDB0F80310B0F80100B3E781784078B0E770B55F
:40070000DFF8EC46206BA16A884205D1FFF775FDA06BBDE870404BE6FFF756FDDFF83817DFF8C856096808186860FFF74DFD0646A06BFFF717FD8019E0610020FFF76AFDCC
:400740006C68844203D3FFF778FDA04202D2292001F06EFEDFF8F816DFF8584909782068052904D013D307290AD003D370BDBDE870403AE5032808D2FFF73FFD002005E037
:40078000012808BFFFF739FD2068401E206070BDDFF8BC060078052806D0062802BFDFF814090068012800D11FE5704710B5044600F0F2FF204600F0FAFF00281CBFBDE88F
:4007C000104000F01DB810BD10B5044600F0D9FF204601F00EF800281CBFBDE8104000F00FB810BD10B5044600F0CBFF204601F018F800281CBFBDE8104000F001B810BDC9
:40080000DFF8900A4168491E11F901290B7843EA022251E0407820B1022805D0032806D008E08A420BDB07E0914207D004E0914204D101E0914201DB01207047002070477F
:4008400038B5044601F02EF80546204601F001F801462A462046FFF7DDFF00281CBFBDE83140FFF7CDBF31BD38B5044601F01AF80546204600F0EDFF617849B1022904D07E
:4008800003290AD1A8420FD10BE0A8420CD008E0ADB280B2854207D303E080B2ADB2A84202D3BDE83140ABE731BDDFF840054168491E416091F900205118416068E79FE77D
:4008C00010B500F02BF894F90510A27942EA0121411A6078814288BF0146DFF8B809446094F90020D2B2592A07D1C91DC9B20919416091F90020D2B20BE04900C91DC9B2E2
:400900000919416091F9013091F90020DBB243EA022251184160BDE8104039E7044600F098BFF8B5FFF7FAFF6278DFF8681900234C60651DE656F6B2582E08BF15F9017B27
:4009400005D095F900C06F7847EA0C27AD1C3FB287421CBF5B1C9342EED1582E18BF520002EB4300401D0019486090F9013090F90020DBB243EA022210184860BDE8F140BC
:4009800006E710B54478142C13D22046FFF77FFCDFF85C04806B844207D1DFF8B404DFF8F41800EBC400006A4860BDE81040FFF724BC10BD80B54078142805DAFFF7F8FC50
:4009C000BDE80140FFF719BC01BDF8E402F00302012A06D002D3032A09D005D3028889180DE00288511A0AE00288514307E0002908BF01F0FDBCB0F9002092FBF1F10180B2
:400A0000704738B500F0C7FD00F080FC03E170B500F071F800F04FF807D9801E012809D900F025F83043207070BD00F040F83043208070BD00F037F83043206070BD70B5C7
:400A400000F059F800F037F807D9801E012809D900F00DF83040207070BD00F028F83040208070BD00F01FF83040206070BD2678284600F017BF70B500F03DF800F01BF8DB
:400A800007D9801E012809D9FFF7F1FF7040207070BD00F00CF87040208070BD00F003F87040206070BD2846266800F0FBBE2846268800F0F7BE04466878801E0128704793
:400AC00070B500F018F8FFF7F6FF08D9801E01280BD9FFF7CCFF06FA00F0207070BDFFF7E6FF06FA00F0208070BDFFF7DCFF06FA00F0206070BD054600F0D9BE70B5FFF7F9
:400B0000FAFF0446687801280ED005D303281AD011D305281FD01ED394F90060FFF7A8FF40B246FA00F004E0FFF7A1FFC0B226FA00F0207070BDB4F90060FFF799FF00B2FB
:400B400046FA00F005E02688FFF792FF80B226FA00F0208070BD2668FFF78AFF46FA00F0206070BD38B5FFF7C6FF0446FFF780FF697801290AD005D3032913D00ED30529F0
:400B800018D017D3B8B194F9001001E098B1217891FBF0F200FB1210207031BD58B1B4F9001001E038B1218891FBF0F200FB1210208031BD18B9BDE8314001F019BC216809
:400BC00091FBF0F200FB1210206031BD38B5044600F06DFE05466078801E012808D9801E012820460AD900F05DFEC043287031BD204600F057FEC043288031BD00F052FE37
:400C0000C043286031BD38B5044600F067FE0546204600F06DFE22782946BDE83840D5E64F4AB0F901101269B0F803008B5AC018885270474A4AB0F901101269B0F8030087
:400C40008B5A181A88527047454AB0F901101269B0F803008B5A584388527047404AB0F901101269B0F903008B5E93FBF0F0885270475F4A4178D26940888B5AC0188852FD
:400C800070475B4A4178D26940888B5A181A88527047574A4178D26940888B5A584388527047534A4178D269B0F902008B5E93FBF0F0885270472A4AB0F801101269B0F991
:400CC00003008B58C01888507047254AB0F801101269B0F903008B58181A88507047204AB0F801101269B0F903008B585843885070471B4AB0F801101269B0F903008B5835
:400D000093FBF0F088507047DFF8182C4178D269B0F902008B58C01888507047DFF8042C4178D269B0F902008B58181A88507047DFF8F02B4178D269B0F902008B58584359
:400D400088507047DFF8DC2B4178D269B0F902008B5893FBF0F088507047000074790020300B002010B5044600F073FDDFF8B42B6178D2698B5AC018885210BD10B5044673
:400D800000F067FDDFF89C2B6178D2698B5A181A885210BD10B5044600F05BFDDFF8842B6178D2698B5A5843885210BD10B5044600F04FFD002804BFBDE8104001F018BB68
:400DC000DFF8602B6178D2698B5E93FBF0F0885210BD10B5044600F03CFDDFF8482B6178D2698B58C018885010BD000058AB00207479002010B5044600F02BFDDFF8242B0C
:400E00006178D2698B58181A885010BD6DAB002010B5044600F01DFDDFF8082B6178D2698B585843885010BD10B5044600F011FD002804BFBDE8104001F0DABADFF8E42AFB
:400E40006178D2698B5893FBF0F0885010BD0000F4A70020DCA700209CA400206CAB002038B500F021F800F0F9F9411B05E038B500F01AF800F0F2F929182046BDE83440D0
:400E800000F033BD38B500F00FF800F0E7F905FB00F1F2E770B500F007F800F037FA00F010F8401B306070BD044600F0DFBC70B5FFF7FAFF00F02AFA00F003F828183060D7
:400EC00070BD0646204600F0CCBC70B5FFF7ECFF00F01CFAFFF7F5FF6843306070BDF8B5DFF8440A0068C0065BD4304CDFF8345A2178287E491E012953D9891E08BF00289B
:400F000050D088B100202876FFF7C1F90CE02648016800EB87008069814213D3384602F08AFF384601F029F8DFF8006A777D142F08D23819017B032918BF0729E7D02A2047
:400F400001F07CFA207880B9A86B0019007B022818BF042809D1594800780028A86B02D000F07EFF01E000F088FF307DA863A86B142802D30020A863F2BDA86B0019007B43
:400F8000022803D1DFF8A8090068F2BDA86BA96B09190A22097B02FB0010643040B201F047FA0020F2BD0000CCAA0020F4A700202DE9F84FDFF87C990FF66C2AB54EDFF8F8
:400FC0006479DFF87489DFF87449DFF8745902E0706800F077F8287818B172B6287840B962B600207876FFF77AFF5FEA000B2FD12CE0206820F0800020604FF483710020E1
:401000002870404602F0E5FF62B601207876B876C6F80480012398F8000030705246C04338704946012078630020787007F59050FC300090301DFFF77BF8B87E30B17A6BB1
:401040000021384603F0C2F90020B876BDE8F18FB86B1B4901EBC000006A7060FFF75DF972B6206820F04000206062B601E04FF47A7B206848B101F083FB18B17068BDE810
:40108000F24F1FE020684006A2D400945B4652464946301DFFF74CF85FEA000BE9D1DFF890080068B0F57A7FE1D072B6206840F04000D9E7D0A70020F2A700206EAB00202C
:4010C000F4A7002070B5DFF85C68DFF878580446B06B4019007B012805D9B06B6D49496805EBC0000162FFF73BF9DFF85C0829780068022919D0052908D0062909D0072939
:4011000005D009290AD00A290AD070BD707E80B901E002280DD2012028700AE0012000E00020287001F010F903E0707E08B120786871BDE8704001F019B9704780B500210D
:4011400003F058F934BF4FF03F414FF07C5103F063F9BDE8024003F0A1B910B500F059F801462046BDE8104000F0BFBB38B500F050F800F045F8002103F03CF9DFF8CC4753
:4011800003D200F042F800210AE0DFF8C41703F0A7F91946104607D803F0B4F94FF0FF310170207828B13AE003F0ACF900F033F8207031BD38B500F02CF800F021F84FF0C7
:4011C000474103F017F9DFF8844704D200F01DF8DFF880170AE0DFF8801703F081F91946104607D803F08EF947F6FF710180207828B114E003F086F900F00DF8208031BD1E
:40120000056862886378284670471946104603F079B9044670E30446284603F03FB9BDE83240232001F004B938B500F095F900F015F800B20EE038B500F08EF900F00EF8D3
:4012400080B203F077F9286031BD38B500F084F900F004F803F064F9286031BD05462046FFE238B500F078F90546204600F058F8296803F0D1F82860DFF8D006007840B19B
:40128000286803F066F9022804BFBDE8314001F0C1B831BD58AB002070B5044600F040F800F034F80646207800F00300012808D002D303280ED009D33068294603F0ACF8EB
:4012C00015E03068294603F059F910E0306800F02DF90CE02846002103F0D2F904BFBDE8704001F085B83068294603F0D7F93060DFF85806007840B1306803F02AF90228C0
:4013000004BFBDE8704001F085B870BD05466178608803F0F7B8B0F90310807802F0E9BAB0F90510007902F0E4BAB0F90610407902F0DFBA2DE9F04106467178708803F012
:40134000E1F8040022D0F079DFF810564FF4B4784FF0FF37242819D8DFE800F0282C3042497A919498A21DB0B624C18F8F8F8F8F8F8F8F8F1319BE8F363C5062C7CED3D9EB
:40138000DF0000F0D6F840B24042207075E000F0D0F800B204E000F0CCF800B2002855D5404253E000F0C5F800B28FE000F0BBF8006819E000F0B7F800681CE000F0B3F80C
:4013C000006803F0E9F929E000F0ADF8006803F019FA23E000F0A7F8006803F06BFA1DE000F0A1F800F0A1F803F0B8FA16E000F09AF800F09AF803F0B4FA0FE000F099F893
:4014000000B2414690FBF1F108FB1100002848BF00F5B47003F084F800F088F820602CE000F081F80168DFF8380503F09DFA4FF07C5102F0F1FF03F031F8414690FBF1F1D1
:4014400008FB1100002848BF00F5B470208014E000F06FF800B203F063F803F0F1FA2060DFF8E804007840B1206803F072F8022804BFBDE8F04100F0CDBFBDE8F08100F071
:4014800058F8E8E700F04FF80068E6E700F04BF80068002102F0AEFFE1D280F00040DEE700F041F80068002102F0A4FF04D303F017F834BF012700272780DEE700F039F82F
:4014C0000028ABD54042A9E700F033F80028F3D40700F1D00127EFE700F02BF8F2E700F022F8006803F0E5FAB9E700F01CF80068002103F005FBB2E700F015F800680121F2
:40150000F7E700F010F8006803F0EAFBA7E700F00AF8006803F0FEFBA1E700F004F80068FFF70CFE7AE73046E6E10068294603F01BBA304695E110B500F00EF894F9041060
:40154000016010BD10B500F007F894F90410627942EA0121016010BD04466178608802F0D1BF10B500F049F8046010BD38B500F012F803E038B50446FFF7D2FEFFF7C6FE5C
:40158000056031BD38B500F006F8FFF7BFFE01686918016031BD044663E138B5FFF7FBFFFFF7B4FE0168491B016031BD38B5FFF7F2FFFFF7ABFE01686943016031BD38B51E
:4015C000FFF7E9FF050004BFBDE8314000F010BF00F08AF8016891FBF5F1016031BD10B500F00BF801686118016010BD10B500F004F80168091B016010BD44684178408873
:4016000002F080BF10B5FFF7F8FF01686143016010BD10B5FFF7F1FF016891FBF4F1016010BD38B5FFF798FFFFF718FE287031BD38B5FFF791FFFFF711FE288031BD38B5D2
:40164000FFF7E7FDFFF7DCFD4FF04F4102F0D2FEBE4C04D2FFF7D9FD4FF000410AE0DFF8041302F03DFF194610460BD802F04AFF6FF000410160207848B1BDE8324024203E
:4016800000F0D6BE02F03EFFFFF7C5FD206031BD70B500F04AF800F044F802F0BDFE3060AA48007848B100F01FF800F037F8022804BFBDE8704000F0ADBE70BD70B500F029
:4016C00034F800F02EF802F059FF30609F48007848B100F009F800F021F8022804BFBDE8704000F097BE70BD6178608802F00ABF70B500F01AF800F014F803F035F9306078
:401700009248007848B1FFF7EFFF00F007F8022804BFBDE8704000F07DBE70BD006802F018BF0646294630687047044665686178608802F0E7BE70B5FFF7F7FFFFF7F1FF50
:4017400002F0ACFF30608148007848B1FFF7CCFFFFF7E4FF022804BFBDE8704000F05ABE70BD38B5FFF7F8FEFFF778FD00B2286031BD38B5FFF7F0FEFFF770FD80B2286097
:4017800031BD38B50446784D00F063F86860204600F088F8286031BD38B50446724DFFF7BAFD68602046FFF7C0FD286031BD80B56D4A516840781268012811D002D3032805
:4017C00008D001D310460DE00846114602F058FF0DD00AE00846114602F052FF07D104E00846114602F07CFE01D8012002BD002002BD5D494A684078096801280DD002D39C
:40180000032806D002D3914209DB04E08A4206D001E08A4203D1012070478A4200DA0020704751494A684078096801280DD002D3032806D002D3914209D304E08A4206D064
:4018400001E08A4203D1012070478A4200D200207047B0F90310807802F050B8B0F9021039E0B0F90510007902F048B8B0F90810C07902F043B8C178808802F043BE817BD8
:40188000B0F80F0002F03EBEB0F90F10807B02F035B8B0F90C10C07A02F030B8C17A808902F030BEB0F90610407902F027B88178B0F8030002F026BE4179C08802F022BE4D
:4018C000017AB0F8090002F01DBEB0F90910007A02F014B88178407802F010B8017901E0B0F90410C07802F009B80A46FEF768BE4178807802F006BE0179B0F8050002F09C
:4019000001BE80B500F09FFC1421184803F01CFA00F09CFA1648002101700020BDE80240FEF793BC74790020E0A70020D4A5002068AB00203C06010818A90020DCA700207A
:401940005C0A0020F4A70020D0A70020F0A7002001007F430080FFFF01FEFF4635FA8E3CE02E65420100004F90A7002000A800206CAB002038B5FFF7EFFD05462046FFF789
:4019800070FF287031BD38B500F048F804462846FFF767FF297811F0030105D0022909D005D3032909D031BD217840180FE02178081A0CE02178484309E0002804BFBDE893
:4019C000314000F015BD94F9001091FBF0F0207031BD38B500F022F804462846FFF741FF297811F0030105D0022909D005D3032909D031BD217840180EE02178081A0BE079
:401A00002178484308E0002804BFBDE8314000F0EFBC217891FBF0F0207031BD05466978688802F06FBD00003B1100082D080108AB200008032300083120000871210008BB
:401A400039050008E9090108030A0008030A0008030A0008030A0008C10A0008FD0A0008650B0008CD0B00084105000839050008A50500080F0A000889FF00089DFE0008FD
:401A80003F0A0008F9060008851500089B150008AD150008BF150008770A0008EF060008390500083905000869080008410800084108000841080008C9070008E507000884
:401AC00051F80008AD0700084515000863150008490500087F0500083905000839050008390500085B050008D3190008D3190008D3190008D31900083D0701086D15000834
:401B000075150008697700086312000899120008991200089912000839050008390500083905000839050008390500083905000839050008390500082B3E0008293E000885
:401B40002D3E00083320000887190008871900088719000887190008C1770008C1770008C1770008C177000839050008BD0A010839050008390500083905000839050008C9
:401B80004D7700087377000823090008C1080008C10800082309000887770008877700088777000887770008390500084F200008CB09000883090008B5090008390500080C
:401BC0004305000851E30008DF150008ED1500080516000813160008730C0008830C0008930C0008A30C0008090D00081D0D0008310D0008450D0008B70C0008CB0C0008E9
:401C0000DF0C0008F30C0008BF080008AB08000837150008FF060008351300085B110008C10B01083F160008650D00087D0D0008950D0008AD0D0008D30D0008F50D00085F
:401C4000110E0008290E0008210C0008350C0008490C00085D0C00083905000839050008390500083905000891160008BD160008F11600083717000839050008390500081F
:401C800039050008390500083905000875190008371200083905000839050008390500083905000839050008070C0008070C0008070C0008070C00086D1100087317000889
:401CC00063170008231600086F0E0008610E0008850E000885310008291200084B120008B51100083116000807220008390500083905000839050008390500083905000878
:401D0000390500089DF300083905000839050008390500083905000839050008AF0E0008950E0008CB0E0008B9050008BF050008C9050008CF050008F70500081F060008A1
:401D40003F06000839050008E50500080D06000831060008510600083905000839050008390500083905000839050008390500083905000839050008390500083905000869
:401D800039050008390500083905000839050008390500083905000839050008390500083905000839050008390500083905000839050008390500083905000839050008C3
:401DC0003905000839050008390500083905000839050008390500083905000839050008390500083905000839050008390500083905000839050008390500083905000883
:401E00003905000839050008390500083905000839050008390500083905000839050008390500083905000880B5142802D3C1B2172005E064494118097B29B9C1B25C20B6
:401E400000F0FCFA002002BD012002BD00205F49405442189075401C1628F9D301F0E7BF10B500F03EF838B1204600F040F82046BDE81040142148E010BD38B500F031F818
:401E8000A0B1204600F033F84F48504B211891F8102193F82A1001E0C918897D142904D00D1895F810519542F6D31CE031BD38B500F017F8A0B1204600F019F84448434B32
:401EC00000EB84018A6993F82B1001E0C918897D152904D000EB8105AD69AA42F6D302E031BD0446A0E72046BDE834400DE010B5FFF7F7FF40B13548215C2218937D195443
:401F000009188B752454947510BD38B500F026F838B12E48295C2C542154221808189575847531BD38B500F019F8B0B12648201890F8101180F81051A9420ED025490968F4
:401F40008C4204BFBDE83140FEF757B9007B022803D12046BDE832408FE731BD04460D4662E738B5FFF7FAFF30B11748201805732046BDE83240BAE731BD10B5FFF7B1FF32
:401F800038B111482018022101732046BDE8104073E710BD38B50F4C05462068FFF744FF80B120680A4901EB80000749856120684018032101732068FFF779FFBDE8314008
:401FC000FEF71BB931BD0000F4A70020D4A50020CCAA0020AC790020002201E000F8012B8842FBD370470918F6E7024908694969091AF8E7300B0020DFF88C040068704736
:4020000010B5DFF88804DFF888444FF47A71018020464FF49271FFF7E6FF0320207010BDDFF86C040178022904BF01210170704706E080B5FFF712FCBDE8024040B2F7E157
:40204000DFF84C0400210171C1708160E8E738B5B0F90140E00548BFFEF7C5F9600748BFFFF7C3FFA00648BF00F0F1F8200648BF01F003F9E00706D50025E8B202F083FE95
:402080006D1C042DF9D3A00708D500250021284603F09AF86D1CE8B21C28F7DB600644BFBDE8314000F00ABB31BD70B50446DFF8E403DFF8DC6302210160A578A819007B62
:4020C000801E01280CD9801E022806D9C01E07D0DFF8C4030121417012E02846FFF74DFFDFF8B8030560B570DFF89C03B4F803100068081806EBC5010C30086201203070CE
:40210000BDE870408CE710B50446DFF884032018027BB9B1022A08D0032A02D0072A02D010BD052102E0082100E004212046FFF718FFDFF868030068844218D1BDE8104081
:40214000FEF75BB8042A04D0052A07D0082A07D010BD2046BDE81040FFF70FBF032100E0072101732046BDE81040FFF7A0BE10BD70B5DFF82013DFF8186302220A60447873
:402180008578DFF81C1300220A700A2C28D8DFE804F00B232327060E0E0E271414000020FEF775F8012417E03278012A14D1C07808700121BB48016008E0A819007B001FC7
:4021C000012802D9801E01D006E000242846FFF7D4FE2846FFF744FE3470BDE87040C5E0AD480121417070BD02788A4200D1704780B58DF800100246012100A803F03AF923
:4022000003F02EF901BD80B5A7480168491E016000229D4800EB82004068884204D1A349515CFFF7E1FF02E0521C102AF1D39B4800680621FFF795FE954808210170BDE8E2
:402240000140FDF7DABF4021994802F07DBD38B50024964D8C4800EB8400406810B1615DFFF7C2FF641C102CF4D3BDE83140EAE770B5854901EB80056C680CB9002070BD59
:402280004FF6FF718C4204D08849415C2046FFF7ABFF002068607E4D2878032815D0002605EBC600006AA04202BF7019007B062808D104213046FFF754FE2878082804BF86
:4022C00001202870761C142EEAD3012070BD38B5102800D3A2E06C4B4FF6FF7503EB8004AA4201D1656031BD1B6803EB41018989C918511861606D4A09788154BDE8314086
:4023000022E038B50446634802210160607800F07F05102D00D381E05B48006898B12846FFF7A6FF28B96078000605D55A48012141706078000606D4B4F80320A1782846FF
:40234000BDE83840C3E731BD10B500244E4800EB8400406800281FBF4FF6FF718842B021FFF742FF641C102CF0D310BD80B500200021474A8B181B7B012B88BF401C491CC5
:402380001429F7D311784B4B90B90120186003292DD00320107000F07CFA4748007830BB72B64648016841F00401016062B601BD59B1C91E08D0891E012911D9891E0CD05E
:4023C000891E01290FD910E01170022805D32F490988B1FBF0F048B905E04FF47A7005E02F48007802E0012000E00020186001BD5B201DE00D201BE0C1B213201EE0C1B245
:402400001F201BE0C1B2202018E0C1B25D2015E061200DE026200BE0022009E0BDE83240192005E0032003E0452001E04420FFE780B5FF2100F002F8002002BD80B5144AAC
:40244000D1711D49097829B110711D4890F90000507115E0D07002211348006890601170002050710D480168142907D201688918097B19B100680421FFF773FDFDF7BDFEEE
:40248000002002BD000000009CA40020ECA70020F4A70020A879002074790020AC7900206DAB0020D0A700205CAB002048AB0020A0A4002068AB00208D790020DCA7002073
:4024C00058AB00207348007870477348007870470021724A525C22B100F8012B491C0829F7DB082103F020B86D49085C70473C2809D26C4951F8300080B201001CBF4FF676
:40250000FF72904200D10020704710B50446FFF7EEFF30B1644850F8340000F1006000F5C03010BD10B50446FFF7E1FF08B95F4810BD2046BDE81040E7E738B5551E0C46BD
:40254000EDB200212955FFF7EDFF002101E0401C491CC9B2A94203D202780A55002AF6D131BD80B552480078FFF7CFFF00281CBF10F1010F18304F49086001BD10B5044651
:40258000FFF7B5FF18B12046FFF7BFFF007C10BD38B504460D000ED0082D0CD214223CA102F0C5FF444850F825102046BDE83840142202F0BCBF31BDF8B504460D46164684
:4025C00001E0761E6D1C012E0DDB207802F0C3FF0746287802F0BFFF874204D114F8010B0028EED1F2BD207802F0B5FF0446287802F0B1FF844202DA4FF0FF30F2BD0120E7
:40260000F2BD2DE9F04186B005460C46142100A802F09AFB294600A802F0A4FF132500A8295C2E2910D1002129542818461C00270125DFF8848058F8251004223046FFF7A5
:40264000BBFF28B9EFB206E06D1EE9D5002702E06D1C0A2DEFDB277000242046FFF747FF68B12046FFF751FF017C8F4207D10146102200A8FFF7A0FF08B9204604E0641CD3
:402680003C2CEADB4FF0FF3006B0BDE8F08100002E00000006800108078001080980010811800108A4800108A08001080C0B00206CAB00209CA40020B40A002010B502F081
:4026C000A7FF00240021204603F034F8641C0A2CF8D310BD10B500240021204600F015F8204603F04FFB641C0A2CF5D310BD80B503F093FD03F095F802F056FF03F02BFB29
:40270000FFF7DCFFBDE80140E4E71C4A02EB801001B10121C1707047184901EB8010C078704780011549405C70478001134A81547047124901EB80104078704710B50446BB
:402740000E4800EB8410017002F00301417012F0800118BF0121C170900900F00101204603F01FF82046BDE81040002102F0E2BF024901EB801090F902007047789700207D
:4027800038B54C48016809B9002032BD72B64A4C01682170217801F040010160474801686160002101604648016861700021016062B62078800748BF01F0B0FC2078C007BB
:4027C00048BF02F04CFC2078000744BF002003F069FE2078000648BFFDF70FFD6078002852D0C00712D443E00025156043F004026270344A1278521E022A84BFD21F022A3C
:4028000002D94A68521C4A60401E60606068E0B12D490A6812B10A68521E0A602B490A68521C0A602A4A1368092B02D25B1C1360DFE700231360627842F00203254A15688D
:402840006370092DD0D26B1CF1E7012003F02AFE214D28680E28B8BF401C02DB03F076FF0020286004F092F901F005FD02F0ECFF6078800708D500F02DFB00F0BCFE6078F9
:40288000400748BF04F0EAFA6078000900F0010032BD80B5FFF712FF00F0E7FDBDE8014000F03CB80D480078704700B101200B4908707047DCA7002060AB0020C0A7002029
:4028C000E0A70020F4A70020780A0020CCAA002040AB002044AB0020D8A700201F080020DFF8E4140A78FF2A03D00146104601F052BB704710B5DFF8D444322020710020E8
:4029000060712070E07000F009F80021DFF8C004617080F82010C820A07010BD80B5012000F005F9BDE80240002000E170472DE9F0410446AA20FFF7D3FF5520FFF7D0FFBB
:402940001E20FFF7CDFF1220FFF7CAFFDFF8808498F8210004F0010508B145F002052846FFF7BEFF2F46002608EB0410355CEF19FFB22846FFF7B4FF761C102EF4DBF843ED
:40298000BDE8F041401CC0B2AAE7DFF84404DFF83C1490F82000497808437047DFF82C0440787047DFF82414C8228A7048707047DFF8180400797047DFF8140490F821009E
:4029C0007047DFF808140871704700B10120DFF8001481F82100DFF8F403C17841F00401C170704738B5DFF8E443A079401CA071C0B21F2804DB607938B10020607100E0E5
:402A0000401CA07101E000206071DFF8BC532878FF282DD001F0F1FB002829D00020A0712878FF2802D001F0F4FB00E000206179052917D8DFE801F018120E0A0403E2E744
:402A4000DFF88C1381F820000520DDE70228DAD10420D9E71628D6D10320D5E75528D2D10220D1E700216171AA28CED10120CBE7A078002806BF6070C820401EA0702878E5
:402A8000FF2803D001F0EBFB002839D02178E0780A0006D0012913D00A291FD0132902D02AE00021E17108B1012028E0207938B3E179814239BF481CE0710320E07031BDF8
:402AC0000521084208D00020FFF731FFE07800F0FA00E070022012E00A2010E00621084208D00120FFF723FFE07800F0F900E0700B2004E0132002E00020E071481C2070EC
:402B000031BD10B5B14CB24B207A2022102103EB001004F0A5F9217AE07800290CBF40F0010040F00200E0700020607210BD80B5022803D35E20FFF77BFC0020A34908724C
:402B4000BDE80140DDE7A1494A7A102A00DB704730B50C7A9E4D05EB0415002C5055C8780CBF40F0010040F00200C870501C487230BD2DE9FC41974991F90020002A43BF3F
:402B800052420A7000240124002846BF40420125002500270DF100080A2300B20A2290FBF2F203FB120007F808007F1C10B210B1FFB2052FF1DB91F90000402810D0FAB2B9
:402BC00090420DDBC61B1DB101E0FFF7BCFF761E76B2012E04DB002C14BF20203020F4E74DB12D2005E07F1EFFB217F808003030C0B2FFF7A8FFFFB2002FF4D1BDE8F381E4
:402C000038B500F067F82872287A022800DB65E02046FEF747FE687231BD80B5FEF719FEBDE80240C0B28EE710B50446FEF711FE684908702046FEF735FEBDE8104000B2EA
:402C400097E780B5FEF705FEBDE80240C0B26EE738B504460D4602E0FFF775FF641EE4B2002C1CBF15F8010B0028F5D131BD38B50C46002500E06D1CEDB2854202D229578A
:402C80000029F8D1FFF73DFF00F05EF821462846BDE83440DCE780B5FFF744FCBDE8044001461020E3E780B5FFF738FE4A480078BDE80240EFE738B500F00CF82872287A1F
:402CC000022800DB0AE02046FEF7ECFDC0B2BDE83240E0E704463D4DFEF7BBBD5E20FFF7A7FB0020287231BD70B53C4C801C2060461C0578266031462846FFF7A9FFA819E0
:402D0000206070BD38B504460D4602E0FFF71BFF6D1E002D1CBF14F8010B0028F6D131BD38B50446002501E06D1CEDB28D4202D2285D0028F8D1FFF7E4FE00F005F8294630
:402D40002046BDE83440DDE7C5F1100000EBD0701E4940104872704780B5FEF7A8FDBDE804401421CEE710B50446FEF772FD174908722046FEF7A0FDBDE810401421CFE730
:402D800070B50446154D114E04F2060028602046FEF75FFD3072307A022805DB5E20FFF747FB0020307270BD29686079FFF75FFF286861790818286070BD094890F90010C6
:402DC0000348222201F002BB5E0A0020ADA6002028A60020B7A600206CAB00205CAB002058AB002063488168002904BF0179002909D1817809292CBF0021491CC07881421B
:402E000001D100207047012070475A48C1788078814201D0012070470020704738B5564B1B78002B1FBF534CE378A578AB4216D01C2505FB03431033032898719A808AB293
:402E40001A6003D11422D81D04F03EF8E078401CC0B20A28A8BF0A38E0700020607031BD444A93681BB1002393601370137100E000BF0A4601460220D0E70146092908DAA4
:402E80000FF2F80252F8211019B1024600210120C4E77047014600220320BFE73548002181700121C170002181600170017101214170704780B5FFF7F1FF07E080B52E48B6
:402EC00001210170FFF7EAFF04F034F8BDE8014004F05AB838B5274CA568207928B104F04CFA002842D0002020710DB16D1E3DD1207838B1E06810F8045F0DB1E06029E0BE
:402F000000202070A07809282CBF0020401CE178884206D1607848BB0120607004F034F824E01C2101FB00411031A0708879D8B1012802D003280FD014E08888C0B2092846
:402F4000A8BF04200FF2340151F8200001212170E0600578408807E0C81D04F0F0F92071002503E08D88086804F0D5F8A56031BD00000000309B0020F2A7002014090108AA
:402F8000400901085409010880090108AC090108BC090108200901082C090108B40901080000000070B53E4A002300241D461E4678C242F8100D118170BD3948817B491C18
:402FC000817341898181704770B54FF48071344A10F8013BF3B1B2F90C40156863559389B2F908405B1C1BB2A342A8BF00239381B2F90C60B2F90A301D46B34207D15368B2
:403000006D1C5B1C2DB25360A542A8BF00255581491EDDD170BD2248B0F90A10B0F90C208A42AFBF501A00898018401A00B2704780B5FFF7F0FF1A49B1F90810081A02BDC9
:4030400070B504460D46FFF7E6FF15498A7B04F8012B04F8010B0022000A04F8010BE81E13E0B1F90A30B1F90C50AB4211D00D685D5DB1F908605B1C4B811BB2B342A4BF92
:4030800000234B8104F8015B521C8242E9D3824204D22E2104F8011B521CF8E770BD000020A7002010B5DFF8A84518220021201D04F002FA00202070A08310BD0020002187
:4030C000DFF88C2500EB40039B181B7903B1491C401C0828F6DB9183704700B583B000F039F80A0A120208BF002209D00A0C120408BF012204D011F07F4F0CBF02220322D2
:403100001FE000B583B000F025F8CA09D2011DBFCA09D20112F1800F002212D0CA0BD2031DBFCA0BD20312F5004F012209D0CA0DD2051EBFC90DC90511F5000F0CBF022228
:40314000032240EAC2008DF8000000A9901C00F015F90EBD00AA0B0A937051700B0CD3700A0E8DF804207047402801D101207047DFF8E0140968B0E700F00F0040F0A00092
:40318000BFE7000070B5DFF8D454044628686178861FDFF8BC04092952D8DFE801F0121E2E050F3139343F4E1822A11C001D04F08DF9FFF783FF286812302DE0FFF772FF59
:4031C0003DE02046FEF745FB05462046FEF76AFB01462846BDE87040CEE700F082F82046FEF737FB05462046FEF75CFB01462846FFF7C2FFBDE8704081E000F054F809E012
:4032000000F06FF806E0DFF850040021817316E000F075F82868801F286070BD012101700021DFF8302400EB810314681C62491C0829F8DB00F005F801E0002101702E603B
:4032400070BD4FF0FF300021DFF8042401EB41039B181B792BB102EB81031B6A834298BF1846491C0829F1DB1064704780B500F01AF8BDE8014015E715E014E0DFF8D00397
:40328000808B7047DFF8C8030078704770B504460D46DFF8C46340220021304604F00CF93460358170BDDFF8B00390F83F10491C80F83F100021817341898181002102E0E1
:4032C00002688954491CB0F908209142F8DB7047DFF8840390F83F007047DFF87C0340687047DFF87403817B00291CBF6320FFF79FB80121817300210182602034E710B52B
:40330000DFF85443A07B002819BF607C00286420FFF78EF80FF24831012000F00FF80020A07304F11201607C00F028F8E07B00281CBFBDE8104000F020B910BD70B5C64A29
:40334000137C5BB9937B1BB96520FFF771F805E0537CC4182E2C03DB01201074002070BD002406E0DBB29D1811F8016BAE745B1C641C8442F6DB5374012070BD2DE9F14F4E
:40338000B54DA87B894618B10098BDE8F44FD5E799F80000202803D16520FFF749F807E000F055F80099814204DB6868401C686000203CE04FF0000A19E000B2C65DB5F858
:4033C0000AB00021304600F055F8401CC0B2584400B24045A8BFA0EB08006881002C18BF202EEAD16868401C68600AF1010A009882451BDAB5F90C102A6819F8010B88540C
:40340000A889B5F90880401C00B24045A8BF0020A881B5F90C10B5F90A008842E5D12F68C65D602E14BF00240124C8E70120BDE8F28F8948B0F90A10B0F90C308B4201DB64
:40344000581A7047B0F90800C018401A704780B5FFF7EFFF8049B1F90810491E081A02BD00BF7D48B0F90800704700BF7A4800218173704710F0E00218BF202A09D0402A1E
:4034800018BF602A07D0802A09D0A02A03D0FF20704700207047C0F3C100401C00E0481CC0B270472DE9F04F85B080460C46FFF7C0FF694E96F83F1008F8011B08F8010BB7
:4034C000010A08F8011BE11E8B460091834588BF834600204FF0FF37039002970024B6F90A505C4518D2B6F90C00854214D00195306815F80090B6F908106D1C8D42A8BF3C
:40350000002515F800A051464846FFF7B3FF0119491C8B4508D2019D002F03D4029CDDF80C803D46758122E009F0E001202906D0602902BF019F0294CDF80C8001E04FF0BB
:40354000FF37641CC0B208F8019B0028C9D0B6F908106D1CD1468D42A8BF0025316815F801A0401EEDE7002008F8010B641C00988442F8D305B0BDE8F08F2DE9F047344C10
:403580002078B0B33448817B01B1FEE7DFF8C480C173D8F80000216C88422AD30126002707EB47000019051D2878C8B1D8F8000004EB8709D9F820A0504511D316B100266D
:4035C000FFF78FFE6978287804F010F801463846FFF7D2FDA8780A2101FB00A0C9F820007F1C082FDCDB002E04BFBDE8F047FFF786BEBDE8F0871648017801B97047164926
:4036000010B5CA7B22B1BDE810406420FEF710BF104A036C12689A4217D3002303EB43042418247974B100EB8304246AA24209D3887B002804BFBDE81040FFF79EBF0120FA
:40364000C87310BD5B1C082BE8DB10BD0000000058A40020CCAA002024A500205CAB0020200050F8041B61B150F8042BD30744BFA9F101039A18002342F8043B091FFAD17A
:40368000EFE7704730B50446084681B01546214600F038FF2246294601B0BDE8304000F037BF04F0C3BA80B5FEF7B2FE4A4802BD08467047024600B508460FF24C2181B0D8
:4036C00051F82210884790F9000001B000BD024600B508460FF2302181B051F822108847007801B000BD024600B508460FF2182181B051F822108847B0F9000001B000BD74
:40370000024600B508460FF2002181B051F822108847008801B000BD024600B508460FF2E81181B051F822108847006801B000BD024600B508460FF2D01181B051F822103C
:403740008847006801B000BD024600B508460FF2B81181B051F822108847006801B05DF804EB00F09BBE80B5FEF74FFE002002BD1A4800690856704718480069085C704754
:4037800016480069085E704714480069085A704700E000BF11480069085870470F48006926E00F48006889B2085670470C48006889B2085C70470A48006889B2085E7047D6
:4037C0000748006889B2085A704700E000BF0448006889B208587047D4A70020300B002090790020004801E090790020006889B2085800F053BE01707047017070470180D3
:403800007047018070470160704701607047FEF7FFBD00B581B0FEF7F8FD002001B000BD024600B508460FF2E00181B051F82210884790F9000001B05DF804EB00F070BE16
:40384000024600B508460FF2C00181B051F822108847007801B05DF804EB00F06BBE024600B508460FF2A00181B051F822108847B0F9000001B05DF804EB00F051BE0246ED
:4038800000B508460FF2800181B051F822108847008801B05DF804EB00F04CBE024600B508460FF2640181B051F822108847006801B05DF804EB00F033BE024680B508465C
:4038C0000FF2440151F8221088470068BDE8024000F030BE024600B508460FF22C0181B051F822108847006801B000BD084600F017BE0FF24C3252F8202010470FF2A41217
:4039000052F8202010470000CF050020A7360008A7360008A33600080D0400200D0400200D0400200D0400200D0400200D0400200D040020150400201504002039040020E1
:403940003904002061040020610400206104002027040020270400204D0400204D0400207504002075040020750400208904002089040020890400208904002089040020B7
:4039800089040020890400208B0400208B0400208B0400208B0400208B0400208B0400208B0400209D0400209D0400209D0400209D0400209D0400209D0400209D0400209D
:4039C000A7040020A7040020FB040020FB0400206F0500206F0500206F050020E7040020E704002041050020410500209D0500209D0500209D050020B3050020B30500205F
:403A0000B3050020B3050020B3050020B3050020B3050020BD050020BD050020BD050020BD050020BD050020BD050020BD050020D7050020D7050020D7050020D705002030
:403A4000D7050020D7050020D7050020CF050020CF050020CF050020CF050020CF050020CF050020CF050020BB040020BB0400201105002011050020570500205705002084
:403A800057050020D1040020D1040020290500202905002085050020850500208505002000000000B13600086737000867370008B5360008713700087937000881370008B0
:403AC0008937000891370008933700089D370008B5360008CF360008E736000801370008193700083137000849370008B5360008CF360008E736000801370008193700080E
:403B00003137000849370008B5360008CF360008E736000801370008193700083137000849370008B5360008CF360008E73600080137000819370008313700084937000823
:403B4000A3370008AD370008B7370008C1370008CB370008CD370008E5370008B5360008CF360008E736000801370008193700083137000849370008B5360008CF36000892
:403B8000E736000801370008193700083137000849370008B5360008CF360008E736000801370008193700083137000849370008B5360008CF360008E73600080137000836
:403BC000193700083137000849370008B5360008CF360008E736000801370008193700083137000849370008B5360008CF360008E736000801370008193700083137000893
:403C000049370008B5360008CF360008E736000801370008193700083137000849370008B5360008CF360008E7360008013700081937000831370008493700080000000092
:403C4000ED38000813380008133800082138000821380008413800085F3800087F3800089D380008BB380008D538000821380008413800085F3800087F3800089D380008C6
:403C8000BB380008D538000821380008413800085F3800087F3800089D380008BB380008D538000821380008413800085F3800087F3800089D380008BB380008D53800089A
:403CC00021380008413800085F3800087F3800089D380008BB380008D538000821380008413800085F3800087F3800089D380008BB380008D5380008213800084138000888
:403D00005F3800087F3800089D380008BB380008D538000821380008413800085F3800087F3800089D380008BB380008D538000821380008413800085F3800087F380008CB
:403D40009D380008BB380008D538000821380008413800085F3800087F3800089D380008BB380008D538000821380008413800085F3800087F3800089D380008BB38000811
:403D8000D538000821380008413800085F3800087F3800089D380008BB380008D538000821380008413800085F3800087F3800089D380008BB380008D53800082138000833
:403DC000413800085F3800087F3800089D380008BB380008D53800080000000080B55849584A09688918097B022918BF062914D190F90010C9B2442902D0452904D00DE051
:403E0000FDF72CFD00280DE0FDF728FD4E4909680818BDE80240FEF7BDB801BDFDF71EFD0A214843F2D101BDD8E7D7E7D6E75021464800F089BF4549002241F82020704769
:403E40002DE9F041FDF733FD0446FF202070002060703F4D3A4E687DDFF8F08010E058F82010475DA1420AD1002148F820103168884204D0207001216170FDF7FEFF384622
:403E80001528ECD1BDE8F08170B50646FDF70FFD04462B4D20782968884208D16078FF2804BFBDE87040FEF7BFBA401C04E0FF2804D1286820700120607070BD3046FDF78A
:403EC000F1FC68B12968214A42F821401E4909680818FEF75FF828681A4940180721017370BD38B5FDF7E3FC0178154A126891421CBFBDE83140FEF799BA4178491E4170DE
:403F0000C9B2E1B9FF210170114A0E4B517D0F4C00E0895C152912D054F82150854202BFCD182D7B072DF4D1017001224270002044F821000846BDE83240FEF71EB831BD6D
:403F4000AC790020F4A70020CCAA0020C0A30020D4A5002010B5DFF8B4430020A0712071207003F07AFE002000220119401C0A720328FAD3FF206070A07003F05FFE0024A0
:403F80002046FEF7B1FA0146204600F0FDF8641C032CF5D310BD70B5DFF8742332F81030FE2BB4BF5B1C0023DFF8684334F810409BB2A34209D032F81040DFF85C63C0EB2E
:403FC0000025AD19615522F81030BDE8704003F0B7BF70B5DFF83433DFF840535C6A002206E0665D1654641CFE2C28BF0024521C8A4202D21E6AB442F3D15C6270BDC34944
:40400000C64B0A6AD054501CFE2828BF0020086270472DE9FC42BD4D04466869E969461C40F2131051B92971A969491CA961E86100F061F8772C15D1012010E0E861287960
:4040400095F80390B64F0028F2D0022817D00BD3042835D020461ED3FFF7D1FF00202871BDE8F3826E61FBE700F045F8772CF7D0992C08BF0220F2D000202871F2E700F0E7
:404080003AF8772C01D10120F7E7EC702869401C28610320E3E7FFF7B2FF0020AC626871B9F1330F0AD172B6386820F08000386000202870286A686262B628620420CEE7A7
:4040C00000F019F8A86A6979401EA86202D060186871C5E7B9F1330F08BFA142BED172B601202870386840F080003860E868401CE86062B6B2E7204681E710B584490A880F
:40410000FE2AB4BF521C0022824B1B8892B29A4203D00B88804C18550A8010BDF8B5814C814D824E824F0CE0485D491C398089B2322924BF002139802168491C2160FFF77E
:4041400068FF398830888142EED1F1BD30B5774A754D32F81030322404FB00541955591C22F8101089B2322924BF002122F8101020B96B48016841F00201016030BD634A9F
:404180008018007A087070472DE9F04104465F4D67190E46387AB0422DD04FF0FF08C01E03D0401E012808D90BE0A878A04208D1FEF7BCFB85F8028003E004F037F885F8B9
:4041C00001803E72F61E03D0761E012E0ED912E0A878FF2805D0FEF7A9FBA878401900210172AC70BDE8F041FEF784BB6C70BDE8F04104F00DB8BDE8F0814D494B4A31F84E
:40420000101032F81000814201D1002070470120704710B50446FFF7F0FF70B14449424B31F81420322000FB0430105C521C322A28BF0022D2B221F8142010BD10B5354AB2
:40424000354C32F81030C0EB00210919FE2B595CB4BF5B1C002322F81030084610BD2C492C4A31F8101032F81000814201D0002070470120704710B5002424482018007A4D
:40428000C01E05D0401E012898BF03F0DAFF01E0FEF7A8FB641C032CEFD310BD00000000401E0D2808D8DFE800F00A0D101316191C1F2225272A2C2F4FF4966070474FF4F6
:4042C000166070474FF4965070474FF4165070474FF4615070474FF4964070474FF4E14070474FF4164070474FF4614070474FF4963070470F4870474FF4E13070470E48A1
:4043000070474FF4613070470C4870475C0A0020A8A70020B0A7002078940020909E0020DCA70020C4A7002058A1002098A70020A0A70020A0860100400D030090D0030063
:404340001D490A7882180A70FFF7D7BE10B50446C0B2FFF7F5FF200ABDE81040F0E710B5044680B2FFF7F2FF200CBDE81040EDE780B5124900220A700F490A701049097860
:4043800029B110480168491C0160002002BD0E490A68521C0A6020B180F0FF00C0B2FFF7CFFF012002BD80B503480078FFF7C8FFBDE8014003F0A8BCF1A700208E790020F5
:4043C000620A0020CCA70020C8A7002070B5044608461546FFF7CCFF58B1002604E014F8010BFFF7ADFF761CAE42F8D3BDE87040D9E770BD4FF0807C1CEB400F94BF1CEBEF
:40440000410F05E040EA010C5FEA4C0C01D28842704718BF8142704790EA010F44BF81F0004100F0B3B800BF421A3CBF801A89184FF0004CC0F3C752FF2A24D0C1F3C7539D
:4044400013B3D21AD2F1190327DD4CEA01214CFA03F321EA0303D140C20D4CEA0020401834BF20EA0C004CEA5000D20553EA006373EB0C0C52EB1020420012F1807F38BF50
:404480007047C00DC0057047490212BF9A4200EB5120F8E7D2F11703D9D570474100090E7F3915D4D1F11F0114D4400007D2C00140F00040C84048BF6FF000407047C00154
:4044C00040F00040C8404CBF4FF00040404270470020704700424FF0004058BFC04370474FF0807C1CEB400F94BF1CEB410F05E040EA010C5FEA4C0C01D28142704718BFFC
:40450000884270478900014A5158084708390008920008B4014B9A5808BC1047FC010108002840F10980F446404200F005F850F000406047002800BF0AD0B0FA80F18840E2
:40454000D1F19D01C905020672F1004241EB10207047C0F3C751FF290AD011B14FF0FF307047400202D06FF00100704700207047400201D0022070470120704790EA010F49
:4045800044BF81F00041FFF74FBF00BF431A4FF000423EBF5340C01AC91800BFD3095FEAD05C13EB400F34BFB3EB410F40E07CEBD1530CD342EA012122D8D1EB402009D352
:4045C000400A28BF5FEA500140EBCC507047401A15D04002B0FA80F2521C9040400A4FEA3C23B3EB026384BF00EB730007E040F400001A16DB07C2F10102D040184370478C
:40460000182BFCDC31FA03F202FA03F3591A38BF42F00102D2EB40203CBF4000ACF1010C5FEACC5CC20572F100414CEB5020704713EB400F0FD24B0009D0ACEBD153022B38
:4046400003DB4902172BDDDD70479143401A4300D5D10020704713EB410FD0D36FF00000704703681AB95A1E026008467047197811B94FF0FF307047591C016018787047AF
:4046800040EA010C5FEA4C0C07D0884205D14FEA400C1CF1807F98BF8042704710B5FF2313EAD0541DBF13EAD1529C429A4239E0A41ADA0780EA0103134042EA012142EA99
:4046C0000020421A3CBF641E01EB4202090AB2FBF1FE01FB1E221202B2FBF1F001FB10226EF30F201202B2FBF1FE4EEA00207F3406DDFE2C24DA53EA500050EBC45010BDD7
:40470000D4F1020401FB1E2240F08071192C1DDC21FA04F0C4F12004A140114371F10042584110BD9C421ABF03EAD1529A420FE080EA010E0EF00043400004D0490016D15C
:4047400043F0FF4010BD490008BFD343180010BD9C4205D1D21AF7D001F00041484010BD4A0212BF0846484000F0004010BD4AB90902B1FA81F2914044B1A418C00140F072
:4047800000409EE7C90141F0004152420002B0FA80F4A040141B94E710B5C0F3C7510246FF2904D059B9400209D1104610BD4002FBD1002A01D5104810BD104810BD1046E7
:4047C0000021FFF717FE3ABF82F000420824002410460B49FFF784FE07D84FF07E501146FFF75CFF024684F002042146BDE81040104604F037B900BFDB0FC9BFDB0FC93F5F
:404800000100803F70B5C0F3C7510446FF290CD009B940020BD020460021FFF7EBFD3ABF84F000440825002503E04002F3D0204670BD20461D49FFF7DDFD12D24FF07E502B
:404840002146FFF79BFE06464FF07E502146FFF7E3FD314600F088F800F0F2F80146204616E01349FFF7C6FD19D24FF07E502146FFF784FE06464FF07E502146FFF7CCFDDD
:40488000314600F071F800F0DBF885F002052146FFF704FF2946BDE8704004F0E3B804F05BF9212101606FF0004070BDF404353F0100803F70B5C0F3C7510446FF2903D11D
:4048C000400201D0204670BD20460021FFF792FD3ABF84F000440425022520461D49FFF789FD12D24FF07E502146FFF747FE06464FF07E502146FFF78FFD314600F034F855
:4049000000F09EF80146204616E01349FFF772FD19D24FF07E502146FFF730FE06464FF07E502146FFF778FD314600F01DF800F087F885F002052146FFF7B0FE2946BDE859
:40494000704004F08FB804F007F9212101606FF0004070BDF404353F0100803F002104F001B9012104F0FEB8FF2212EAD05C1DBF12EAD153944593422BE09C44D30780EA00
:4049800001021A4043EA002043EA0121A1FB0030410038BF40007CF17F010BDBFE294ADA5B0842EAC15153EA006373F1004C51EB10207047D1F1080CDCF120012FDB5B0857
:4049C00010FA01F10B4373F1004120FA0CF05041704794451CBF02EAD153934280EA010202F000421DD0400019D0490017D05BB9634514D00902B1FA81F39940BCEB030C91
:404A0000C00140F00040C1E70002B0FA80FC10FA0CF0B3EB0C0CC90141F00041B6E71000704740000AD0490008D010F1807F94BF11F1807F02E042F0FF407047D0437047B6
:404A40004FF40002C10D23D0FF2929D230EAC15010437D31490828BF001880004FF0C073B0F1906006D452080ED2C01A9B18D2EB4000F8D5520806D2C0189B1AD2EB4000E7
:404A8000F1D55208F8D35B1E580850EBC1507047B0FA80F108398840F9D0D1F10101D8E7FF29F4D0D042F2D84000F0D0C84304F077B901B5C0F3C751FF2905D059B94002F6
:404AC00009D14FF07E5002BD400200980AD1002808D5002002BD00224FF07E5100A804F065F9009802BD8268521C8260426832B10268531C036011704168491E416070470A
:404B00002DE9F141C0F3C75081B00C46FF2809D101980026400202D10198002818D40198BDE8F68101280BDA01A804F04BFA012806DB04F011F8222101605A48BDE8F68150
:404B4000019921F0FF4141F07C510191A0F17E060198002807D503F0FFFF212101606FF00040BDE8F6815049FFF744FC06D201464FF08040FFF7F8FE0190761E01994B488E
:404B8000FFF74AFC019905464FF07E50FFF744FC01462846FFF782FD07463946FFF7E4FE804643484146FFF7DFFE4249FFF734FC4146FFF7D9FE4049FFF72EFC4146FFF7ED
:404BC000D3FE01462846FFF7D9FC3946FFF7CCFE074630B2FFF7A4FC064684B937483146FFF7C2FE3946FFF7C9FC2946FFF714FC044633483146FFF7B7FE21463CE0012CE5
:404C000023DB30482946FFF7AFFE04462E482946FFF7AAFE05462D483146FFF7A5FE80462B483946FFF7A0FE01464046FFF7A6FC2946FFF7F1FB2146FFF7EEFB0446254850
:404C40003146FFF791FE214616E0234C28462146FFF78AFE804621482946FFF785FE054638462146FFF780FE01462846FFF786FC4146FFF7D1FB3146FFF7CEFBBDE8F68196
:404C800010B504460A482146FFF76EFE0949FFF7C3FB2146FFF768FEBDE810400649FFF7BBBB0000000080FFF304353F000080BF1502993E11AECC3EC0AA2A3FE8E8FB33A0
:404CC0001672313FD85BDE3E2837A932F43EA133D95BDE3E98209A3E3BAAB83F6070A532C0F3C7527E3ACCBFD2F1180C07E06FF07F41D140004258BF401888437047182A48
:404D000006DA410018BF4FF07E5028BF4FF0004070470000C0F3C7527E3ACCBFD2F1180107E06FF07F41D140004248BF401888437047182A07DA41001CBF4FF07E5040F0B0
:404D4000004038BF00207047002204F053B9000080B5042804D3FDF765FB47F6FF7002BD174A136802EB80008068181A2C2902D02D2902D002BD0A2100E06421B0FBF1F07F
:404D80004004400C02BD042828BFFDF74BBB0C4901EB800009688160704710B5084C74212046FDF720F90020A4F86800002104F16800C16001610022024942600A6010BD41
:404DC000CCAA0020C0A70020DFF800F027080020DFF800F0210A0020DFF800F0410A0020DFF800F029080020DFF800F08B08002010B5044604F0F9F900F02EF9DFF8500671
:404E00000021215446E010B50446FFF7F1FF601CBDE81040ECE7DFF83C26DFF83C36805C1822142102FB003000F07EBB10B5044604F011F92046BDE81040ECE770B50446B0
:404E40000D461646FFF7F2FFDFF80806DFF80826205C182101FB00208580C68070BD10B50446DFF8EC05205CA0B1343803280CD9001F0CD00B3805280CD90D3805D0401E81
:404E800005D02046FFF7B4FF04E0204600E0601EFFF7B9FF2046BDE8104004F069BA0B2818BF11280FD10B280CBF11200B20DFF8A015415C091F05D03039042984BF1C3975
:404EC000012900D8CBE770472DE9F0410446DFF88055605D0E46C9B2884200F0A9802046FFF7BDFF66556719F6B204F10108761E1AD0F61E32D0293E16D0761E00F0868037
:404F0000761E00F08A80361F18D0761E032E5CD90F3E052E6CD9F61F18D0761E09D0761E032E69D9361F27D02046BDE8F04104F092B82046BDE8F04104F0AFB8204604F0BF
:404F40009DF82046BDE8F04104F0F2B8204604F095F82046BDE8F04104F0F6B800F06AF800285DD02046FFF79AFF00F075F82046FFF75CFF204624E01B2C28BF00204FD274
:404F800000F058F800284BD02046FFF788FF4046FFF785FF4046FFF762FF5120787000F05BF8404604F057F82046FFF734FF2046FFF70AFF2046FFF739FF204604F0E8F887
:404FC0004046BDE8F04104F0E3B81B2C28BF002026D200F02FF818B32046FFF760FF4046FFF75DFF4046FFF73AFF3820787006E000F020F8A0B105E000F01CF880B1204657
:4050000004F03CF82046BDE8F04104E700F012F830B14FF46162832106E000F00BF808B9605505E0002202212046BDE8F04105E7BDE8F081204604F0A7B910B504F090F8EA
:4050400004F07EF9002400F007F8641C1C2CFADBBDE8104004F03CBA204603F0FCBF70B50024DFF8EC53DFF8F063182000FB0460007DFF280ED0415D2E39012908D9891FC8
:40508000032984BF1839032904D800F049F901E000F0DBF8641C0C2CE7D370BD0020704780B5DFF8AC23DFF8AC13825C521E1AD0D21E31D0293A5BD0521E012A36D9521F99
:4050C00014D0521E032A27D90F3A1AD0521E042A22D9921F0ED0521E4AD0521E032A1BD9121F19D038E003F0F7FF05E0BDE8024003F0FABF03F0F8FF00F0010080F00100DA
:4051000002BD405CDFF85023182101FB002072B601684068081A07E0405CDFF83C23182101FB002072B6006862B602BD405CDFF82823182101FB0021087C032801D00020F1
:4051400002BD08688A88C98890FBF2F0A1B190FBF1F201FB120002BD08283CBFBDE8024004F0A2B9142824BFBDE80240FFF796BFBDE8024003F0B0BF02BDB549415C4329E2
:405180000AD1B449405CFF2806D01821B24A01FB0020B0F90C0070474FF0FF307047AC49415C04290DD043290BD1AA49405CFF2807D072B61821A84A01FB0020806862B6BC
:4051C0007047A64800687047A14BA24AC35C042B20D02E2B18BF2F2B11D0332B06D0432B21D04A2B06D0502B14D0704701B10121C9B202E0491E8941C90F03F08ABF805C24
:40520000954A182101FB0020017C032914D10021016070471821805C8F4A01FB002072B60021016007E01821805C8B4A01FB002072B60168416062B6704780B5FFF730FF77
:4052400000B1012002BD04F02FB938B504468148205C1C2800DBFEE718217F4A01FB0025287C18B1022813D008D323E0C82068810120287400202860288131BD6889401EAA
:40528000688180B278BB4FF48060688102202874204604F009F92968401828606989491E698189B2F9B9810A2981287303202874002017E0204604F0F7F82989401A644931
:4052C000615C2E290ED1011D09290CD36989491C89B2B1F5806F02DB297B401A0021698129684018286031BD10B5044603F02CFF0D2004F0C3F9204603F01AFF5448205C8C
:405300003438032806D91838032808D8FFF7A4FE204600E0601CBDE8104003F039BF10BD2DE9F04180464B484B4A18F80000484F182101FB00256889297C461C4FF0FF30F9
:4053400001290AD002D303291ED01AD30120287408F1010003F01CFF3FE0404603F08EFE404603F0E5FE387F10B10F2E02D235E0322E33D30220287400264046FFF7B4FFF1
:405380002CE0242E2AD323E0AC6848F6A0418C421ED218F80700352813D0362823D0372815D04C2806D04D2809D04E2819D04F281CD001E000F01DF84FF4AC7002E000F041
:4053C00018F88820604344F62061B0FBF1F42046286001202874387F00B100266E81BDE8F08100F006F84FF45760EBE700F001F8EDE7404603F0F9BE10B5164A164B805CC0
:40540000182202FB003419B1FFF7E2FC606010BD6068FFF7E1FCA0600320207410BD1C2814D20B4BC35C421E1B1F0BD0343B0BD0143B032B09D91B1F02D05B1E06D1104648
:40544000FFF7CEBCFFF7D0BC1046D5E77047000090A60020D4A60020589C0020CCAA002010B5304C206810B1211D04F03DF90020206010BD2DE9F8435705D60A80460C46C3
:405480007F0DF602274D03E006F50066C84400272868B04207D0FFF7E3FFB4B12E60291D304604F007F9E019B0F5006F88BF4FF40060A0EB0709281D4A464146381802F079
:4054C00005F81FFA89F0241ADED1BDE8F1832DE9F0414D05CE0A04466D0DF602114F02E006F5006600253868B04207D0FFF7B8FFB4B13E60391D304604F0DCF86019B0F557
:40550000006F88BF4FF40060A0EB0508381DFF224146281801F0A4FC1FFA88F0241ADFD1BDE8F081748C0020002201F09DBC10B4034600E05B1C1C78002CFBD13AB10C782C
:405540002CB111F8014B03F8014B521EF6E70021197010BC7047A0F161011A2938BF2038704700005FEA000C830706D011F8013B00F8013BB3B18307F8D10A68B2F10133CE
:4055800023EA020313F0803F02BF40F8042B51F8042FF3E711F8013B00F8013B13B111F8013BF9E76046704732E02DE9F0410446DFF8F88008EB841090F83E10C90716D5D0
:4055C000C11CC07891F9386000B17642384D00270AE0785D08EB801191F83D10A14204BF314600F0A7F87F1CE8688742F1D3BDE8F08100202D4901EB8012121D401C92F8E3
:405600003A3003F0FE0382F83A300A28F3D3704780B5FFF7EEFF00202449FF2301EB8012401C82F83D300A28F8D321480021C16001BD38B5054608461C4C04EB8511FF28F1
:4056400081F83D000ED004EB8011091D91F83920AA4205D1FF2281F83920002100F0A1F8052100E00021284600F09BF8FFF7C1FF0F480021C16004EB8112121D92F83930A4
:40568000FF2B0ED0C36819545B1CC36092F8392004EB8212121D92F83A3043F0010382F83A30491C0A29E6D331BD00007897002030A7002000F22E010022CA714A720A72F1
:4056C0008A720A73CA72C2857047000038B50446DFF830066FF07E0200EB84109142B8BF114602DB8029A8BF7F218170C278002A14BF4A420A4690F8305000F13003052DC5
:405700000FD8DFE805F0030B0E0F0F065970DA7208E02046BDE8324000F04CBCFFF7CAFF00E05970204600F045FC2046BDE83240FFF73BBF70B50446DFF8C80500EB841610
:4057400006F114000D46017F41B1012902D0052909D00BE0204600F01EFB706129462046BDE87040B2E700210177F7E701210177F0E7DFF8901501EB801090F83600704713
:4057800038B50446DFF87C0500EB8415002085F834002846FFF78EFF204600F0FCFAA86131BDDFF8602502EB801282F83010E7E7F8B504460D4616461F4600F0ECFA381A3B
:4057C000012802DB002E03D501E0012E00DB7642E81E012807D8069800283946204604D100F02BF803E00021204600F060FB204600F0D1FA0746204600F054FB8742304652
:4058000003DA03F093FF064602E003F08FFF464229462046FFF7C5FF31462046BDE8F44054E70020DFF8DC14FF2301EB8012401C82F83D300A28F8D37047DFF8C82402EB21
:40584000801251619CE700002DE9F8430024DFF8B48408EB841707F11C06BD1C307D96F91F9007281FD8DFE800F0040B1E0B0B040B0B97F90200697801B14042F07712E037
:4058800000A9204600F0E9FA01460098FA69821AA87882420EDB204600F011F80098F861308A401C308296F91F0081451CBF204600F080FB641C0A2CCBD3BDE8F1832DE9A0
:4058C000F14F9046DFF83C2402EB801482B0206A216204F120050F1A95F9110095F91210A874A61C081800EBD070F1884010484308FB00F0FEF714FEDFF80C14FFF734F879
:4059000081463846FEF70CFE01464846FEF736FE8146781C032804D2287FFF2803D0401C00E000202877B078804518BFB8F1000F0DD0FEF7FFFD4946FFF716F8074640467D
:40594000FEF7EEFD01463846FEF7A8FE8146687D18B9029800F0DAF828B1029800F028F90120687520E095F911102B7C94F902000A465B1E02D09B1E012B15D8F3789F1818
:40598000A2EB030E904203DA7246824206DA04E0824203DAB842C8BF38460246881A48BF40428342FDDB6A74308995F9118000FB08FAFEF7BFFD4946FEF7D6FFFEF76EFD8D
:4059C000777850440090B5F90800FEF7A9FD01464846FEF7D3FD4FF07D51FEF7C5FF8246B5F90A00FEF79CFD4FF07A51FEF7BCFF5146FEF711FD8246FEF750FD6881B08955
:405A0000FEF798FD5146FEF7AFFFFEF747FD01904846FEF743FD28816421B078B6F80AB04843322190FBF1FABBF1000F25D068684946FEF7F1FC06466E605846FEF77AFDEE
:405A400083463146FEF790FF8146CAEBCA10FEF767FD5946FEF722FE0021FEF7CBFC38BF80F000403146FEF7C5FC04D380F00040FEF736FD04D8686002E00020686081466A
:405A80000098FEF74DFD4946FEF7C6FC06460198FEF746FD3146FEF7BFFC06465046FEF73FFD01463046FEF7F9FDFEF7F7FCB8F1000F05D1297F0F2902DB0020E87623E016
:405AC0008028E97C03DB7F20FF2907D10BE06FF07E02904204DA1046FF2904D0491C01E009B1491EE97494F9021029B96974696069810020298101E007B14042E87602989E
:405B0000BDE8FE4FFFF751BDBDE8F78F38B57D4901EB801595F83010C91E012944D800F0B7F9044605F13000017911B1002101713AE095F9021090F90100012904DB0028C2
:405B400032D4814206DA2FE0002903D501282BDA884229DBAA1C002C06D5012901DA884200E0814207DA21E0002901D4814200E0884204DA1AE0D178A0EB410102E0D178CB
:405B800000EB410193785843D38858434843D1785E4A5143B0FBF1F003F0C8FD0546204603F0C4FD854201D2002032BD012032BD2DE9F843534901EB801800F069F908F1EE
:405BC00004068146708D401C0024708508F13007B9F1000F05D597F90100012809DB022407E0B9F1010F04DB97F90100002848BF0124C9EBC910FEF793FC054698F8040086
:405C0000B1884843FEF78CFC4149FEF747FD01462846FEF743FDFEF741FC020048BF5242717892FBF1F3022B06D9D81E032819D9001F012818D91DE0611E01290AD9B97A39
:405C40000A29BCBF491CB972B97A4843991C90FBF1F51BE00021B972F979A1420CBF8500450013E0012000E002200023BB7201FB00F507E097F90150002D48BF6D42A942E4
:405C8000B8BF6D1AB9F1000F48BF6D42621E012A16D8F879A04213D0387A04280BDA401C3872C0B2042806DB0120B8710020316AFEF75AFE3062316A1648FEF755FE3062A9
:405CC000FC715FEA090048BF4042B17881420DDB787A0428B8BF401C09DB0120B8714FF00040316AFEF740FE306203E000207872B87920B198F83000042818BF00257D70C6
:405D0000BDE8F18378970020A41A043730E0030000007A44000040BFDFF800F0210800209F4A02EB8010001D0C2211F8013B00F8013B521EF9D17047994901EB801090F940
:405D400031007047964901EB801090F836007047944908707047FF220A21934803F046B90A469149425400211046FFF72DBA80B50A2804D30220FCF75BFB002002BD8A49D7
:405D8000405C02BD10B500F00FF82061002020626061A06110BD10B500F006F82169401AE17801B1404210BD7D4901EB8014FFE738B504467C48255CFF2D18D02846FFF709
:405DC000ABFF432802D0502811D10BE02046FCF7A8FC062818BF0A2804D12846FFF760F9404232BD2846BDE83240FFF759B9002032BD000070B505466B48285C0026FF28B0
:405E000002D14FF0FF3070BDFFF7B7F904462846FCF787FC801F072805D8DFE800F015060B1015060B10264615E0A4B15F4844F690410DE07CB15D4842F6DA7108E054B1BB
:405E40005A4841F6E77103E02CB1584841F65A51614390FBF1F630B270BD70B504465248265C0D46FF2E10D03046FFF755FF432818BF502809D12046FFF78DFF04463046A3
:405E8000FFF78DF92860204670BD0020286070BD10B50446FFF77FFF414901EB84114969081A10BD3E4901EB8010406970473C4A02EB80104269891841617047384901EBCF
:405EC000801090F830007047354B03EB8111091D152807D010D3172808D005D3192809D006D309E00A707047CA8070470A8170474A817047CA70704701F024BB284A02EBA5
:405F000081110A1D1538092821D8DFE800F00507090B0D0F15181B1E10787047D08870471089704750897047D0787047B2F92400C97869B140427047106AFBF7FFB8B2F97A
:405F40002600F5E792F937007047506970470020704717490A220B78FF2B06D0834201D1881C70470E31521EF5D10020704710B50B4901EB80110C1DFCF7D3FBFFF7E9FFB4
:405F800030B92046BDE810400C22002101F094BA002110F8012B0A55491C0C29F9D310BD789700201FA700207CA700205847F80D14800108DFF8AC1301EB801292F93B10A5
:405FC000020002D0092802D003E0002000E001206EE1401E00F039BC70B582B00C4601218DF802104FF48051ADF80010DFF8785338B910218DF803104FF6FE7229881140F6
:4060000005E018218DF80310298841F001012980A88200F04EF84FF40050ADF800003CB910208DF803004FF6EF712888084005E018208DF80300288840F0100028802C834F
:4060400032E070B582B00C4601218DF802104FF48041ADF80010C44D38B910218DF803104FF6FF622988114005E018218DF80310298841F480712980A88300F01AF84FF4DA
:406080000040ADF800003CB910208DF803004EF6FF712888084005E018208DF80300288840F4805028802C8400A9304603F042FB73BD00A9AD4E304603F03CBB80B5AA4847
:4060C00001884FF6EE7200F014F84FF4405008E080B5A54801884EF6FF6200F00AF84FF4404000F001F801BDADF800009F4803F021BB1140018001208DF8020000A9102061
:406100008DF80300704710B5984C78B9FFF7D6FF082100F020F84FF48051204603F071FB102100F018F84FF400510FE0FFF7D0FF802100F010F84FF48041204603F061FBA6
:406140004FF4807100F007F84FF400412046BDE8104003F056BB204603F055BB10B584B00121042003F051FC01214FF4805003F04CFB7E20ADF804004FF4EC70ADF8000037
:406180000020ADF80600ADF8020000A9784C204603F092FC46F668002083A083082143F23330208481202080204603F0C8FC0121204603F0BAFC0121204603F0A4FC00227E
:4061C0001E21204603F0A9FC1E220121204603F009FA1FBD80B50121202003F00DFC01208DF8020000A910208DF803004FF4CC70FFF77AFF0020FFF786FF0120FFF783FF0A
:4062000001BD80B5FFF7AAFF00210020FFF7E4FEBDE804400021084613E780B5FFF7DAFFBDE80140EDE770B55249504D01EB80014C68012C19DB48B90021E0B2FFF7CCFE90
:406240000821284603F0DFFA102109E00021E0B2FFF7F7FE8021284603F0D5FA4FF480712846BDE8704003F0CCBA002C1DD564420028E1B207D1FFF7AFFE0821284603F03E
:40628000C0FA10210CE00020FFF7DBFE3A4E002030808021284603F0B4FAB4804FF480712846BDE8704003F0AEBABDE870402AE770B504462F4D05EB840080294268A8BF0B
:4062C0007F2104DA6FF07E039942B8BF19464160605D401E02281BD9002A05D5002907D52046BDE870409EE7012AF9DB0129F7DA1F4E00220121304603F00FFC0120605577
:406300002046FFF700FF3046BDE87040012235E070BDF8B5164C174E4FF6FE7020820025F068401CF0600027B85D012804D00FD3032807D003D30BE00125022007E00125AD
:40634000032004E001253846FFF76DFF0020B8557F1C022FE8DB25B92046BDE8F84000220CE0F1BD7897002020080040001401400008004050A700203C080040012103F093
:40638000CCBB0000F8B58A4C8A4DA3686E780200A3F11400C0B202D00021E17009E0E778854AA7F1010CBCF1050F08D9BCF1060153D003F0FCFC03F0E2FC012037E095F8F5
:4063C00047C0BCF1000F02D004F07CF959E0072E02D0082E55D028E005F227018E78CF7895F827503F0447EA066646EA05254E78724F35430E79497941EA0621704E9B5D02
:40640000182606FB037372B69E7B16B901269E735D601D60B1F5804F6A4D2D689D606A4D25F81010A8BF002104E009B1781CE0700020F2BD998162B60C2101FB0020D0F857
:40644000A810491CC0F8A810E07802EB8000416E491C416601202070F2BD116B491C1163092E05DA02EB86014A6B521C4A6302E0516D491C516504F025F972B6082068700B
:4064800062B60120F2BD80B54A48417890F8470030B9072902D0082902D002BD04F053F8012002BD70B5444E414D0446706E401C706628790D2845D8DFE800F0070D131C4D
:4064C0004F57616767676767677401202871BDE8704003F05ABC03F06FFC002866D0022063E01420A860002068700320287104E0401CA860A8681C2809D2A8683349415CEE
:4065000043390129F4D8F1881431884212D3F08818B9B068401CB06027E0F068401CF060287880B100206870002028701420A8600520287121460120FFF724FF58B1A8686F
:40654000401CA86070BD6878401C6870C0B20628EADB002029E0042027E021460020FFF711FF18B3A868401CA860A87808B106201BE003202871192003F080F8BAE70720CF
:406580002871BDE8704003F0C2BF2046FFF77BFF20B1032028710020A87070BD34B12879401C02E00020A8700320287170BD000070A70020F0A10020F8990020589C00201F
:4065C000D4A60020CCAA0020F0A6002090A6002000221100814201DA491CFBE770472DE9F047DFF80084DFF80044404604F0DCF82084404604F0D8F860844FF40061DFF832
:40660000EC93484603F0FDF8DFF8E473B87808280AD020223946204604F0CFF8A01DFBF757FF5520607100E03C460025DFF8C463DFF8C4A30121504603F0E5F800F03AF863
:406640000028FBD034F81510404604F0ABF8012100F031F80028FAD0404604F0A5F826F8150000F027F80028FBD00121504603F0C8F89620FFF7ACFF681005EB9070801086
:40668000A5EB800003280AD14FF47A70FFF7A0FF032D04D14FF40061484603F0B4F86D1C102DC7DBF87F401CF877708C401C7084BDE8F0870221404604F078B838B5DFF889
:4066C000304300F083F800207F220119401C8A710828FADB0020DFF81C53607168844CF6171020800420A0700220A0700120A0770020E07704F068F8C0490870801EE17878
:4067000009D0401E022886BF01F0FE0040F0800001F07E0001E041F08100E07000200C2101FB005101F206017F220A704A708A70CA700A714A718A71401C0022CA710A72BF
:406740000228ECDBBDE8314004F052B810B5AA4C0121204603F055F8204603F048F81821084232D1FFF73BFFA24C20884CF61711884202D000F02AF813E0A078C0F3420094
:4067800004EB800104EB8002496A491C5162401E9749062805D8DFE800F0061406180614060001200AE094F8200008B1032003E0A078C00701D508208870002084F82000CE
:4067C00010BD082088700120E07710BD20220021204600F071BE87488078C00824E08548817F407F40EA01207047814820E08049CA7802F07F0242EAC010C87070477D4867
:40680000C078400603D47A48C078C00701D501207047002070477649CA7802F0FE021043C87070477248C07800F0010070477148C078C00970476F48C07870476D48C078EA
:4068400010F0030018BF01207047082803D2684A80187F31817170476648007902E0FBE76448407940F24F2148430A2190FBF1F080B270470000000001215E4A2B284CD880
:40688000DFE800F0161820224B4B2426282A4B4B4B4B3A3A3A3A3D3D3D3D3D3D3D3D4040404043434343434343432C2E30323436907902E0D079C0F1FF00FF280CBF7F20D0
:4068C0007F3817E0107AF6E7507AF6E7907CF4E7D07CF0E7107DEEE7507DEEE7D07AECE7907AEAE7107BE8E7D07DE6E7907DE4E7107EE2E700B27047527B0E3807E0927BC3
:40690000123804E0527E1A3801E0927E1E3801FA00F0104002D0012070470020704710B586B000208DF80000324CE078C10744BF01218DF80010800705D59DF8000040F0E6
:4069400002008DF800000422A11D0DF1010003F034FF607B8DF805000322A07B8DF8060004F10A010DF1070003F027FF042204F112010DF10A0003F020FF607E8DF80E0080
:406980000322A07E8DF80F0004F1160104A803F014FF1B4890F90010132200A8FDF716FD06B010BDF8B504461248164BC2791B780D46017A49425242012B07D002D3032B6C
:4069C0000AD006D35620FBF733FD07E00E46174604E0477A0E4601E08779164626802F80F1BD0000003001404CA600200008014070A60020DC090020001801401E080020D5
:406A000058AB00201DA700202DE9FF470121032002F0FBFF0121DFF8BC0302F0F6FEDFF8B863DFF8B873DFF8B89300244FF6FF7A4FF4807824202422002100FB049000F0C7
:406A40003BFD03208DF8020048208DF8030074B9ADF8008000A9384602F06CFE7868000900017860786840F0040078600FE04FF48060ADF8000000A9304602F05BFE7068C8
:406A800020F470607060706840F480607060002C0CBF4FF08045D34D0420ADF80400ADF808A00020ADF80A00ADF8060001A9284603F002F800202884A5F82CA010202885A0
:406AC00001210120A883A88B40F03000A8830120A882A88940F00800A881A5F82080284603F011F8002C0CBF1C201D208DF8000000208DF801008DF8020001208DF803001B
:406B000000A803F0F8FE641C022C93DBBDE8FF8710B5FFF779FFB24C0822802104F10C0000F0CAFC04F13000BDE810400822802100F0C2BC0021017001214170AA490968AE
:406B40005A314160A9490978C90801F0010181F0010100EB41026423928A5A430E2392FBF3F246F29D339A4228BFFF2208D2A04B9B18B3F5487F92BF80226423B2FBF3F24F
:406B80000B18491C1A730729E3DB704770B50024954D934E242000FB046072B641682A6891423CBF0021417062B6017809B1FFF7C1FF641C022CEDDB70BD8B7802463BB986
:406BC00042F21170824223DB0120887008817047B2F5FA6F1ADB42F228339A4218DAB2F5915FCCBFA0F5915001200A89082ABCBF01EB420290820889401C088180B2062852
:406C000004BF012008700889072801DB00208870704780B508214FF0804002F0A0FF70B14FF080410022888F8A847249FFF7C5FFBDE8044008214FF0804002F09ABF01BDA8
:406C400010B5684C0821204602F089FF58B1A08F0021A1846249FFF7B0FF2046BDE81040082102F086BF10BD1CB55D494A78002A04BF91F82520002A51D0C0B2421801F23E
:406C80002503491C032821D9041F1DD0641E19D0641E032C13D9241F0FD0641E0BD0E41E012C11D9A41E012C0CD90A3C012C04D9A41E012C30D85A7C09E01A7C07E092F891
:406CC0002B2004E04A7C02E00A7C00E0527BA2F1800109B2802ABCBF012A6FF07E011D281AD8DFE800F01A17171A1A1A1A17171A1A1A19190F120F12191919191919191937
:406D00000F120F12792907DB02E011F1780F03DA012102E0494200E0002108B216BDBDE81640C0B2FFF7A8BDF0B587B000284CD000208DF804002A4C607810B101208DF8E2
:406D4000040094F8250028B19DF8040040F002008DF80400002505EBC50001A94618242000FB0547042207F10D01701C03F025FD0020ADF80000787C0828B8BF022002DB98
:406D8000F92802DB0120ADF80000B87C082804DABDF8000040F0080005E0F92805DBBDF8000040F00400ADF80000022200A9701D03F003FD6D1C022DCDDB13220E4890F9AB
:406DC000001001A8FDF702FB01E0FFF7A8FD07B0F0BD0000000E1A00000C01400010014010A4002000040040CCAA00202D0B0020F4CFFFFF34A4002058AB002080B51549CE
:406E0000086080B203F0FCFDBDE8014003F0FBBD10480068704710480078704780B57D2002F00EFE00B101200B490870BDE8014002F017BE80B545F2555003F0DBFD032023
:406E400003F0DBFD03480068FFF7D8FFBDE8014003F0DEBD240B0020F3A7002003F0D3BD62F30F2262F31F42401810F0030308D0C91A1FD3DB0748BF00F8012D28BF20F872
:406E8000022D130030B414461546103928BF20E93C00FAD8490728BF20E90C0048BF40F8042D890028BF20F8022D48BF00F8012D30BC7047C91818BF00F8012DCB0728BFD6
:406EC00000F8012D7047000001B58B0718D1121F21D351F8043BA3F1013C2CEA030C1CF0803C04BF40F8043BF1E79CFA8CFCBCFA8CF1C1F118018B40CB4040F8043B13E0AB
:406F0000042A09D311F8013B521E00F8013B5BB18B07F7D1DBE7121D5AB111F8013B521E00F8013B03B1F8D111001CBF0022FFF79BFF01BD80B50121022002F054FD01215C
:406F4000042002F059FD01214FF0005002F05DFD01214FF4005002F04FFD1020ADF8000000A900208DF80300DFF8200402F0E2FB01BD652828BF6420DFF8141448607047B1
:406F8000DFF80C044068704750E080B53A218DF800108DF8030002218DF801108DF8021000A803F0A8FC01BD80B5DFF8E4030178022910D18168491C816000214170DFF811
:406FC000D40303F0CEFDDFF8D0030122062103F0B5FD012005E0C168491CC160012141700020BDE80240D0E710B5DFF8AC4300220621204603F0A2FDDFF894030121417010
:40700000C168491CC1602046002103F08EFDBDE81040DFF8800303F0A4BD7047704780B5FFF7E2FFDA480021017001BD80B5FFF7F4FFFFF7F4FFBDE80140EFE73EB504460D
:407040000D4600A802F056FDD44890FBF4F090FBF5F0ADF8040000A900200090ADF80600CF4802F029FD37BD00B585B0FFF7BCFF00A803F0ACFD0C20009000A90020019010
:4070800002200390002003F08FFD00A9102003F08BFD05B000BD30B504460D468BB00021102003F09AFD0021102003F0A2FD00A803F02EFDBB4800900194102002900395F3
:4070C00000200490802005904FF4007006904FF480600790202008904FF40050099000200A900021AC4C204603F01FFD204603F09BFC00A9204603F0F0FC0121204603F0FF
:4071000014FD0121002003F068FD0121002003F070FD0BB030BD70B59D4C05462078401E05D0401E012898BFFFF780FF06E0606820B92946BDE8704010207FE70120207051
:4071400060686528A4BF6420606004F120000FF26821102231F8103B66687343642693FBF6F320F8023B521EF4D129461020FFF765FF00F0BDF8FFF777FF102104F120006F
:40718000FFF789FF2846BDE87040AEE0F8B5864AD2F80012491CC2F800127D494B696BB90878022802D0032803D0F1BD03200870F1BDFFF73BFFBDE8F14037E74B69392B2B
:4071C000A8BF38230024794D17E00E69367832F9166006F5FE46FF3636114F687E436427B6FBF7F6B6F5805F28BF40F6FF7620F81460641C0F697F1C0F619C4209DAAF8827
:40720000012F02D0072FE0D0E7E70E6936783601E3E71A4602E020F81260521C382AFADB4869C01A4861F1BD00214FF4006220F81120491C3829FADB704738B55C4D544C88
